:100000000C94D3030C940B040C940B040C940B046D
:100010000C940B040C940B040C940B040C940B0424
:100020000C940B040C940B040C944A290C94062990
:100030000C94472A0C940B040C940B040C940B04A2
:100040000C940B040C940B040C940B040C940B04F4
:100050000C940B040C94232A0C940B040C940B04A6
:100060000C940B040C940B040C940B040C940B04D4
:100070000C940B040C940B040C940B040C940B04C4
:100080000C940B040C940B040C940B040C940B04B4
:100090000C940B040C940B040C940B040C940B04A4
:1000A0000C940B040C940B040C940B040501090232
:1000B000A10185020901A100050919012905150001
:1000C00025019505750181029501750381010501E1
:1000D000093009311581257F950275088106093897
:1000E0001581257F950175088106050C0A380215D2
:1000F00081257F950175088106C0C005010980A191
:1001000001850319012AB700150126B7009501756D
:10011000108100C0050C0901A101850419012AA064
:1001200002150126A002950175108100C005010984
:1001300006A1018506050719E029E71500250195A7
:1001400008750181020507190029EF1500250195A1
:10015000F0750181020508190129059505750191C0
:1001600002950175039101C00660FF0961A10109B3
:1001700062150026FF0095207508810209631500AD
:1001800026FF00952075089102C005010906A1010E
:10019000050719E029E71500250195087501810279
:1001A0009501750881010507190029FF150026FF33
:1001B0000095067508810005081901290595057542
:1001C000019102950175039101C00000000000003B
:1001D000000000000000000000000000000000001F
:1001E00000000000000000000000000000007E0F82
:1001F00000D4FFFFFFC700000078000000000000EF
:1002000000002A2B28000000000000000000000071
:10021000000000000029000000002C1E34202122D4
:1002200024342627252E362D3738271E1F2021223D
:10023000232425263333362E37381F0405060708B6
:10024000090A0B0C0D0E0F101112131415161718A6
:10025000191A1B1C1D2F3130232D350405060708E4
:10026000090A0B0C0D0E0F10111213141516171886
:10027000191A1B1C1D2F3130354CFD377A585A0086
:100280000004E6D6B4460200210116000000742FD7
:10029000E5A3E004DD01CF5D003D8889C65436C387
:1002A000174FE4E4F11CD57CD3AFCF382F37919FA3
:1002B000B7EED57169896F58CA70912B3B4C9E1C63
:1002C0000AF4B84DFAA9B886601E07F5B980A102F4
:1002D0009CD61C8FD737114CF90E13B0C05D0D1C86
:1002E0001FE6AC3B572692E6BED99959F4553D8B93
:1002F000FEA0D1C05DFF65654B8B5105A224630E46
:10030000457A1B2DA257A4A259639054F683A95392
:10031000799466E236D53D6109FA8F4EE67C2DA4CC
:100320006876CAA8F4B7B61B6E20457778F39E2688
:100330004A4905DCB7AAE65F5B045E47E6429BC11B
:10034000D7A4704C265E0450D108DE1BDE054B039B
:10035000164378C8D78AEC240F43012370B7403D79
:10036000B9B426867C847EC5D193B86ECAA1B7D8AD
:10037000258D0902925C2C175A2E7DDD3E52634278
:10038000B7E016B9D999295DFF1B47E50399C73E28
:10039000F9CC02665474A9536E52275C9A94B57BCB
:1003A000ED0B2B780F41F81459EECD4CFCA2D48400
:1003B0000B5230359D0AB13CD5987463198C043DBD
:1003C000D3797A494ACA14CA25311BFDC3D08EB9E4
:1003D0007B7866930ECFF55F63849EA142367FCB18
:1003E0009C67305D45834B930406417E8C00ADE8ED
:1003F00001BDDD2DFD5EF8B0B8329FC917160F3371
:1004000074DD836367ACDE77EFBC8745F335052A7F
:100410005647E5382C3AA3CEB5C37AB1B8D5436474
:10042000E409E6E0FABBEE9C71A4391E21A1A02EDE
:10043000F11EF15498C05986BD9588B4A3AC23240D
:100440007432076B5116CFB518A2053D0446D3C1CF
:10045000EA515F6DB12056E10053020A215C9062BF
:100460008C4A6C76BFCFC6FA0000590B9C05DB5E48
:10047000A56A0001EB03DE09000069B02C31B1C4AC
:1004800067FB020000000004595A14001A0008001B
:10049000150017001C0018000400160007000900D2
:1004A0000A000B000D001D001B00060019000500CE
:1004B00011001000E000E200E3002A002C00E6003A
:1004C000E7000C00120013003600E40000000000FA
:1004D0000E000F002800370000000000000001009F
:1004E0000100010001000100010001000100010004
:1004F00001000100010001000100010001000100F4
:1005000001000100010001000100010001000100E3
:1005100001000100010001000100010001000100D3
:1005200000000000010001000100010000000000C7
:1005300000000100010001000100010001000100B4
:1005400001000100010001000100010001000100A3
:100550000100010001000100010001000100010093
:100560000100010001000100010001000100010083
:100570000100010000000000010001000100010075
:100580000000000000000100010001000100010066
:100590000100010001000100010001000100010053
:1005A0000100010001000100010001000100010043
:1005B0000100010001000100010001000100010033
:1005C0000100010001000100000000000100010025
:1005D0000100010000000000000001000100A8046B
:1005E0000A0E3D0E000002000200A4040A0E3D0E99
:1005F000000003000100A9040A0E3D0E00000400E3
:1006000002008E040A0E3D0EFA0605000100AA043F
:100610000A0E3D0E00000600020090040A0E3D0E78
:10062000000007000200A6040A0E3D0E00000800AC
:100630000100AB040A0E3D0E000009000200920406
:100640000A0E3D0ED5060A00020094040A0E3D0E65
:10065000D5060B00020096040A0E3D0ED5060C00CE
:10066000020098040A0E3D0ED5060D0002009A0401
:100670000A0E3D0ED5060E0002009C040A0E3D0E29
:10068000D5060F0002009E040A0E3D0ED50610008E
:100690000200A0040A0E3D0ED50611000200A204BD
:1006A0000A0E3D0ED50612000200AC040A0E3D0EE5
:1006B000000013000200AE040A0E3D0E00001400FC
:1006C0000100B0040A0E3D0E0000150000000000FD
:1006D0005B062515000009025B00030100A0FA0972
:1006E0000400000103010100092111010001224061
:1006F000000705810308000109040100020300004E
:1007000000092111010001222200070582032000B7
:100710000107050303200001090402000103000092
:100720000009211101000122BC00070584032000FB
:1007300001120100020000000831740100010001F3
:100740000203011C037600690061006C003A006638
:1007500000360034006300320062003300630000A2
:10076000001A03710061007A0020006B00650079B7
:100770000062006F006100720064000000220377D5
:10078000006800790064006F00620065006100721B
:100790000073006500780070006C006F006400005A
:1007A00000040309040011241FBECFEFDAE0DEBF0E
:1007B000CDBF04B603FE18C08091A8059091A9058D
:1007C000A091AA05B091AB058730904BA740B04BE4
:1007D00059F41092A8051092A9051092AA0510923A
:1007E000AB05E0E0F8E3099511E0A0E0B1E0EAE351
:1007F000F5E602C005900D92A037B107D9F725E0C4
:10080000A0E7B1E001C01D92A83AB207E1F70E944B
:100810006E2A0C9477320C940000E8EDF0E08081B1
:100820008E7F80831092E2001092DA001092E10035
:10083000A0EEB0E08C9181608C9380818F77808373
:1008400019BCA7EDB0E08C918E7F8C9380818F7E58
:1008500080831092770508952091E4003091E5009F
:1008600095E6A9012091EC00822F817020FF06C03F
:100870008091E80080FF06C080E008952091E800A4
:1008800022FD1AC08091A505882389F0853089F062
:100890008091EB0085FD0FC02091E4003091E500D0
:1008A00042175307F9F29150E1F684E0089582E08F
:1008B000089583E0089581E00895EF92FF920F93E9
:1008C0001F93CF937C018B010E942C04C82F8111B0
:1008D00017C08091E80085FD0BC08091E8008E77FD
:1008E0008093E8000E942C04882399F3C82F08C045
:1008F000F70181917F018093F1000150110949F7BF
:100900008C2FCF911F910F91FF90EF900895CF936F
:10091000FC018091A505843001F5C091E900CF70FC
:100920002091EC00922F917020FD90E8C92B82E07D
:100930008093E9008091E80080FF0CC050E040E027
:1009400060E270E0CF010E945D048091E8008E7744
:100950008093E800CF70C093E900CF910895809113
:100960009D0587FF13C08091E80082FF06C080913B
:10097000E8008B778093E80004C08091A505811181
:10098000F2CF08958091A5058823D9F38091E800DE
:1009900080FFF8CF8091E8008E77ECCF982F90936E
:1009A000E900242F762F50E0891731F07091EC0088
:1009B0002091ED005091F00021FD07C09F5F97301E
:1009C00071F78093E90081E008953091EB003E7F5C
:1009D0003093EB003091ED003D7F3093ED0030918E
:1009E000EB0031603093EB007093EC002093ED004E
:1009F0005093F0002091EE0027FDE0CF80E00895B5
:100A0000B0E0A0E0E6E0F5E00C94CA31C8EDD0E03B
:100A100088818F7E8883E7EDF0E08081816080832C
:100A200084E082BF81E08093770588818E7F888310
:100A300002EE10E0F80110821092DA0081EEC82E6A
:100A4000D12CF601108288818F7788838881806815
:100A5000888388818F7D888319BC1092A5051092A8
:100A60009C0510929B0510929A0590EEE92EF12CB0
:100A7000F70180818B7F808388818160888342E059
:100A800060E080E00E94CE04F60180818E7F80834A
:100A9000F801808181608083808188608083F70194
:100AA00080818E7F8083888180618883CDB7DEB727
:100AB000E8E00C94E631FC018091A3059091A40537
:100AC00086179707A0F06115710529F49091E80049
:100AD0009E779093E80090E06115710551F49111B3
:100AE00008C08091E80082FF34C080E00895BC0116
:100AF000F2CF8091A5058823C1F18530C1F18091A5
:100B0000E80083FD30C08091E80082FDEACF80914B
:100B1000E80080FFE1CF8091F3002091F200382FB0
:100B20006115710519F02830310558F091E0283031
:100B3000310509F090E02091E8002E772093E8003D
:100B4000CBCF81918093F100615071092F5F3F4FAE
:100B5000E7CF8091A505882341F0853041F0809151
:100B6000E80083FFBECF81E0089582E0089583E02E
:100B7000089508958091790508959C014FB7F894E0
:100B800080916E0590916F05A0917005B0917105EF
:100B90004FBF821B930B08952FB7F89480916E0579
:100BA00090916F05A0917005B09171052FBF0895C8
:100BB00020916B0530916C052817390771F09093DF
:100BC0006C0580936B05E0916905F0916A0530979B
:100BD00021F00084F185E02D0995089520916705A5
:100BE000309168052817390771F090936805809354
:100BF0006705E0916905F0916A05309721F006805C
:100C0000F781E02D09950895E0916905F0916A0555
:100C1000309729F00190F081E02D0995089580E04A
:100C20000895452B39F0682381E06F3F09F080E09B
:100C30008170089581E0FCCFDC0160918A0480918D
:100C40008B04962F891301C00895292F30E0F901F4
:100C5000EE0FFF1FEE57FB4F408151814A175B0794
:100C6000A1F487E08A9FA0018B9F500D112446526A
:100C70005C4F81E0FA0184839613E6CF2F5F3F4FEC
:100C80002370332720938A0408952F5F3F4F922FBC
:100C90009370D8CF1092770310927603EAEDF3E0C9
:100CA0008581811102C014821682379684E0E23871
:100CB000F807B1F70895B0E0A0E0E1E6F6E00C94A3
:100CC000C8318FEF9FEF4430510508F469C040915F
:100CD000720541FB882780F990E0880F991F42FB3D
:100CE000002700F910E0000F111F000F111F802BCB
:100CF000912B40FBCC24C0F8D12C8C299D2943FB9F
:100D0000222720F9C22FE0E0DE2F53E0CC0FDD1FB9
:100D10005A95E1F78C2B9D2B44FBAA27A0F9B0E054
:100D2000E4E0AA0FBB1FEA95E1F78A2B9B2B45FB5A
:100D3000EE27E0F9F0E0A5E0EE0FFF1FAA95E1F73E
:100D40008E2B9F2B46FB222720F930E0B6E0220FA6
:100D5000331FBA95E1F7822B932B47FB222720F90B
:100D600030E03695322F222737952795822B932B0B
:100D700020917305322F3170F32EE82EF92A269533
:100D80002170B22EBB0CA82EBF28C501BB0CAA0B2C
:100D9000BB0BFB0180839183A283B38390E080E04F
:100DA000CDB7DEB7EAE00C94E431EEE8F4E08481FC
:100DB00095812AE030E0B9010E948B3160931501E2
:100DC00086818093140182858093130184858093AA
:100DD000120186859785B9010E948B3160931101BC
:100DE000808980931001828980930F018489809388
:100DF0000E01089580918E0490918F0490931701B5
:100E000080931601089581152CE5920741F42091F5
:100E10004B0330914C03232B11F490E080E00895B4
:100E20000E94CC059C019091450280914602982B2E
:100E300021F0309342022093410290914702809129
:100E40004802982B21F03093400220933F02E0911A
:100E50006905F0916A05309749F082E0809343027A
:100E60000480F581E02D83E492E009950895909146
:100E70004502803F59F48091460287FF0DC01092D1
:100E8000460291110BC010923D0208C0813F81F4CF
:100E90008091460218169CF3992381F080914702B5
:100EA00090914802892B09F064C010923C02089589
:100EB000823F49F497FFF0CF10924502809146029D
:100EC0008111ECCFE0CF833F19F41916ACF3E4CFD6
:100ED00020914702893F29F41216F4F61092470236
:100EE000DBCF8A3F19F427FFD7CFF8CF20914802F4
:100EF0008B3F29F427FFD0CF10924802CDCF8C3FF3
:100F000019F41216CCF3C8CF843F31F48091440217
:100F10008E7F80934402C0CF853F21F480914402AC
:100F20008D7FF7CF863F21F4809144028B7FF1CFF4
:100F3000873F21F480914402877FEBCF883F21F4E3
:100F4000809144028F7EE5CF8D3F31F480913E0247
:100F50008E7F80933E02A0CF8E3F21F480913E028F
:100F60008D7FF7CF8F3F09F097CF80913E028B7F27
:100F7000F0CF089580913E0280FF0CC060910F0178
:100F800070E075956795759567956115710549F1DF
:100F9000862F089581FF06C060910F0170E075955E
:100FA0006795F3CF60910F0182FD0BC090913C02D9
:100FB0009923A1F060910E0180910F01961738F0EE
:100FC000682F70E06038710500F38FE70895899FFE
:100FD000C001112470E00E949F31F4CF61E070E005
:100FE000D7CF81E0089580913E0260919604709180
:100FF000970480FF16C020911301269FC001279FF0
:10100000900D1124BC0176956795769567956038AB
:10101000710508F043C06115710509F441C0862FC0
:10102000089581FF0BC020911301269FC001279FC7
:10103000900D1124BC0176956795E9CF82FF09C018
:10104000809113019B01829FB001839F700D112439
:10105000DECF20913D022223D1F2909112018091A6
:101060001301482F50E0291748F0CB01849FB001AD
:10107000859F700D949F700D1124C9CF289F9001FA
:101080001124269FA001279F500D369F500D11243B
:10109000692F70E0CA010E948B31B9CF8FE70895A4
:1010A00081E00895803F31F40E94F3078195809399
:1010B00046020895813F19F40E94F307F8CF823F5A
:1010C00031F40E94F3078195809345020895833F90
:1010D00019F40E94F307F8CF893F29F40E94BA0758
:1010E0008093470208958A3F21F40E94BA078195B0
:1010F000F7CF8B3F31F40E94BA0781958093480265
:1011000008958C3F19F40E94BA07F8CF843F31F458
:10111000809144028160809344020895853F21F4C8
:10112000809144028260F7CF863F21F4809144028F
:101130008460F1CF873F21F4809144028860EBCF37
:10114000883F21F4809144028061E5CF8D3F31F4E6
:1011500080913E02816080933E0208958E3F21F48B
:1011600080913E028260F7CF8F3FB9F780913E02B7
:101170008460F1CF80E00895F894E82FE295EF7055
:10118000F0E031A1282F2F7081E090E001C0880F9E
:101190002A95EAF7982F9095932391A392A1892BF2
:1011A00082A3789408959091720592FF06C0282F2B
:1011B00028712830F9F4877F846093FF06C0282FB8
:1011C00028712831F1F4877E84612091730520FF16
:1011D00006C0382F38713830D9F4877F816021FFFD
:1011E00006C0282F28712831D1F4877E816194FDB3
:1011F000877E0895282F24712430F9F68B7F88602C
:10120000DCCF282F2471243101F78B7E8861DDCF5C
:10121000382F3171313019F78E7F8860E0CF282F59
:101220002171213121F78E7E8861E1CFCF93DF9349
:10123000EC0182389105A9F1D8F58133910509F4C3
:1012400096C048F58932910509F48AC08A9709F455
:1012500095C0C11521E5D20708F0BCC0C11530E525
:10126000D30708F014C1C83ED10508F09CC0C13EA8
:10127000D10560F5C83AD10508F087C0C53AD10557
:1012800008F0FDC0C130D10509F12097F9F0C43054
:10129000D105E0F440C08533910509F45AC0C997DF
:1012A000C1F680917205837089F0C0EED0E00EC067
:1012B000833E910599F170F4803E910501F1823EE3
:1012C000910539F68091720582FD21C0CE01DF9132
:1012D000CF910895863E910561F1873E910571F1A8
:1012E000843E910509F0B5CF8091730581FFEECF63
:1012F00080917205C7EED0E084FD0DC0E7CF8091EC
:10130000720580FD12C19091730590FFDFCFC3EE8F
:10131000D0E084FFDBCFD0E0C0E0D8CF8091720571
:1013200082FD06C19091730590FDBFCF84FFCECFA3
:10133000F2CF8091720583FDDDCFC8CF8091720519
:1013400083FDF9C09091730591FFF0CFC4EED0E01A
:10135000BDCF8091720585FFB9CFC9E2D0E0B6CF8D
:101360008091720585FFB2CFC5E3D0E0AFCF809109
:10137000720586FFABCFCAE2D0E0A8CF809172059C
:1013800086FFA4CFC1E3D0E0A1CFCF3BD10518F6B3
:10139000C85AD0E0CC0FDD1FCA5DDE4F0990D8815E
:1013A000C02DD46493CFC11540E2D40758F4C115C1
:1013B00081E0D80708F08ACFC03FD10508F4ABCF51
:1013C000D06584CFC11590E4D90708F4A4CFDF70AD
:1013D000D06A7CCFC11525E5D20700F5C11534E5EB
:1013E000D30708F08AC0C11543E5D40708F071C0DF
:1013F000C11582E5D80708F467C0CE01837099272C
:1014000021E030E002C0220F331F8A95E2F7C69533
:10141000C69580E2C89FE001112452C0C11599E52C
:10142000D907A8F4C11528E5D20708F06BC0C1158B
:1014300036E5D30708F06FCF8C2F0E94D308C82F52
:10144000D0E0DC2FCC27CC27DF71D0623FCFC11595
:101450004AE5D40708F45BC0CE019056811590424E
:1014600008F059CF8D2F8F710E94D30890E0982FEC
:10147000882788279F719C012C2BE901E6CFC55A4C
:10148000D0E0CD5DDE4FC881D0E0D0641FCFCE016B
:10149000E4E096958795EA95E1F783702C2F2695E1
:1014A0002695237040E2249F90011124382B8C2F25
:1014B0008370C1E0D0E002C0CC0FDD1F8A95E2F757
:1014C000C22BD32BDC6802CFDC2FCC27C16FD06AB4
:1014D000FDCECE018370992721E030E002C0220FBB
:1014E000331F8A95E2F7C695C69590E2C99FE00141
:1014F0001124C22BD32BDA68E9CEDC2FCC27C46FA2
:10150000D06AE4CEDC2FCC27C06FD06ADFCE8C2F20
:101510008F700E94D30834E0D695C7953A95E1F7CD
:10152000CF709C2FEC01D069D1CEC9E3D0E0CECEF4
:10153000C2EED0E0CBCEC6EED0E0C8CE809117028E
:10154000882331F0109217021092160210921502A1
:101550000895CF93C82F8091730582FF0CC08091AE
:1015600017028C1741F00E94CC05909316028093CD
:101570001502C0931702CF91089580959091A70509
:1015800098239093A70508958095909151039823EF
:1015900090935103089590915103892B80935103A7
:1015A00008951092F4011092F3011092F20108953F
:1015B0008091900490919104892B89F00E94CC0530
:1015C0002091150230911602AC01421B530B81E0B1
:1015D00020919004309191044217530708F480E061
:1015E0008170089590911A019923D1F0909172051C
:1015F00097FF16C0E82FE695E695E695EE31E0F404
:10160000F0E0EE58FE4F282F277081E090E001C0F7
:10161000880F2A95EAF7809592818923828308951D
:10162000E4E7F1E09191891303C0DF0111971C9267
:1016300091E0EA37F907B1F7089590911A019923DB
:10164000C1F09091720597FF14C0E82FE695E695DA
:10165000E695EE31F8F4F0E0EE58FE4F877021E0A9
:1016600030E001C0220F8A95EAF78281822B8283C3
:101670000895A4E7B1E0EFEF90E02D91821751F0CB
:10168000EF3F19F4211101C0E92F9F5F9630A9F7B0
:10169000EF3F09F408950E2E000CFF0BEE58FE4F9D
:1016A000E6CF2091F1019091B001291302C080E0B2
:1016B000089530E0F90153E0EE0FFF1F5A95E1F76E
:1016C000EF54FE4F5181561306C05081581303C08A
:1016D0005281541304C02F5F3F4F2770E6CF81E043
:1016E00008958091F1019091B001981301C008957F
:1016F0008F5F8770FACF292F963078F5873068F59D
:1017000090E037E0239F800D911D1124682F6770B2
:1017100023E0969587952A95E1F7FC01EE0FFF1FD0
:10172000E80FF91FEA56FE4F50E040E080E02191BB
:1017300030E0062E02C0369527950A94E2F7217014
:101740003327042E01C0220F0A94EAF7822B4F5F41
:101750005F4F4330510559F7089580E00895292FD0
:10176000963098F5873088F590E037E0239F800D1C
:10177000911D1124282F277041E001C0440F2A95A4
:10178000EAF723E0969587952A95E1F7FC01EE0F9D
:10179000FF1FE80FF91FEA56FE4F30E020E070E02F
:1017A0005191DF011197CB01022E02C096958795CA
:1017B0000A94E2F7817081958527842385278C938D
:1017C0002F5F3F4F2330310559F7089592959F7051
:1017D000963091F058F4925F9F70923058F4803FA9
:1017E00019F030F4883E30F481E008959A5FF4CF28
:1017F000843FD1F380E00895883EB0F3813FD1F774
:10180000F3CF9C013A9521153F4150F5FC01EE279D
:10181000F170BC0166277270AC01442754709C01C2
:101820002227387094FF0EC080E1EF2B09F480E08E
:10183000672B09F08062452B09F08064232B89F027
:101840008068089581E0EF2B09F480E0672B09F0B0
:101850008260452B09F08460232B19F0886008957D
:1018600080E0089580937405709376056093750504
:101870008091A5058430F9F48093E9008FEF909171
:10188000E800815095FD06C095ED9A95F1F70000AE
:101890008111F5CF8091E80085FF0DC050E040E058
:1018A00063E070E084E795E00E945D048091E800C9
:1018B0008E778093E8000895BC0184E00E94320C8A
:1018C0000895BC0183E00E94320C08959C0184E0DD
:1018D0008093E9009FEF8091E800915085FD06C05C
:1018E00085ED8A95F1F700009111F5CF8091E80020
:1018F00085FF0CC050E040E066E070E0C9010E9446
:101900005D048091E8008E778093E8000895CF937E
:10191000DF93EC0180911A018823B1F18091720567
:1019200087FF32C060E284E08093E9008FEF9091FE
:10193000E800815095FD06C095ED9A95F1F70000FD
:101940008111F5CF8091E80085FF1BC080911A01BD
:1019500070E050E040E0811104C050E040E068E0F9
:1019600070E0CE010E945D048091E8008E77809344
:10197000E80080E2FE01AAE7B5E001900D928A95A9
:10198000E1F7DF91CF91089568E081E0CDCF81E06C
:101990008093E00080E28093D8001092C9008FE12C
:1019A0009EE40197F1F700C0000087E090EBDC01B6
:1019B0008093A8059093A905A093AA05B093AB05C1
:1019C00088E19CE00FB6F894A895809360000FBE64
:1019D00090936000FFCF019708F40895EFE9FFE0CE
:1019E0003197F1F700C00000F6CF0F931F93CF930C
:1019F000DF930EE814E0C7E7D1E0CE010E942D325C
:101A0000F80181938F012196CB39F1E0DF07A9F727
:101A1000C4EED5E0FE0185919491009711F0FC0190
:101A200009952C96F6E0C03EDF07A1F7DF91CF9134
:101A30001F910F9108950F931F93CF93DF938430DD
:101A400030F5663020F5473010F5C42FD0E0CC0FCC
:101A5000DD1F2EE0629FC00DD11D112434E5839F50
:101A6000C00DD11D1124CE0187960E942D32082F62
:101A700010E0102F0027CE0188960E942D32980189
:101A8000282BC901DF91CF911F910F91089590E00C
:101A900080E0F8CF462F20914F0330915003232B45
:101AA00099F4703F39F4603F79F480914D0390913F
:101AB0004E030895843040F4763030F4673020F4DB
:101AC000672F0E941B0D089590E080E00895CF924B
:101AD000DF92FF920F931F93CF93DF936C010091DE
:101AE000A60580911802082BC7E0D0E010E0FC2E7C
:101AF000C8010C2E02C0959587950A94E2F780FDE7
:101B00000CC02197A0F7F12C8F2DDF91CF911F9161
:101B10000F91FF90DF90CF900895B6018C2F0E9417
:101B20004A0D0E941609019761F3EECFCF93DF9320
:101B3000EC010E94670DBE010E944A0D0E94160929
:101B4000DF91CF910895FC0186819781009729F05C
:101B50000E9416090E94E60B0895808191810E94DF
:101B6000960DF8CFA5E0B0E0E8EBFDE00C94CF31A6
:101B700049835A8389819A81662399F0222389F0C7
:101B80000E94670D182F682F89819A810E94AF0BE0
:101B900069817A81812F0E944A0D2596E3E00C9499
:101BA000EB310E947B0B182FF3CFFC01262F86818F
:101BB0009781009739F440815181628173818481DA
:101BC0000E94B20D089583E290E00E942D32853D7F
:101BD00089F484E290E00E942D328A3959F485E23A
:101BE00090E00E942D3291E08B3509F090E0892F32
:101BF0008170089580E0FCCFCF9384E090E00E9454
:101C00002D32C82F82E290E00E942D32982F8C2F27
:101C1000CF910895DB01FC01329625913491421752
:101C2000530758F0FC01349665917491A901CD01D8
:101C30000E940D3290E080E008958FEF9FEF0895AD
:101C40000F931F93CF93DF930EE814E0C7E7D1E023
:101C5000CE010E942D32F80161918F01681719F0B1
:101C6000CE010E943B322196CB39F1E0DF0781F7AC
:101C7000DF91CF911F910F910895DA019C012E5FA2
:101C80003F4FF90145915491F90125913491A217E3
:101C9000B30758F0FC013496859194910E940D325F
:101CA0000E94200E90E080E008958FEF9FEF08954E
:101CB000CF93DF93CBEDD2E060E0CE010E943B32C8
:101CC0002196C11584E0D807B9F7DF91CF91089527
:101CD0001F93CF93DF93122F8430E0F46630D0F45B
:101CE0004730C0F4C42FD0E0CC0FDD1F9EE0699FC9
:101CF000C00DD11D112494E5899FC00DD11D112463
:101D0000632FCE0187960E943B32612FCE018896C9
:101D10000E943B32DF91CF911F910895CF93C82F3E
:101D20006FEF811165ED83E290E00E943B326FEF2F
:101D3000C1116AE984E290E00E943B326FEFC11169
:101D40006BE585E290E00E943B32CF910895CF93FE
:101D5000C92F682F84E090E00E943B326C2F82E212
:101D600090E00E943B32CF9108959B01883070F43F
:101D70009AE0899FB001112465567E4F4AE050E0F9
:101D8000C9010E941D3290E080E008958FEF9FEF1F
:101D90000895AAE0B0E0EFECFEE00C94C63107EB4A
:101DA00014E0F12CE12C86E6C82E88E2D82E9DE8BE
:101DB000A92E98E2B92E2BED822E27E2922EF80161
:101DC000D182C082B382A28295828482F58AE48A1B
:101DD000BE016F5F7F4F8E2D0E94B50E892B29F4B7
:101DE00089859A85F801938B828BFFEFEF1AFF0AA2
:101DF0000A5E1F4F88E0E816F10409F72A96ECE026
:101E00000C94E231AAE0B0E0E8E0FFE00C94CA31C3
:101E1000EBE5F2E080EFDF011D928A95E9F7EAED4C
:101E2000F3E088EADF011D928A95E9F78BE5C82E79
:101E300082E0D82E7F010BEE11E0F701D182C08243
:101E40004AE050E0B801CE0101960E941D3288E0C0
:101E5000FE013196D60101900D928A95E1F78985B0
:101E60009A85D70113969C938E931297BAE0CB0E66
:101E7000D11CE7E0EE0EF11C065F1F4F0B3DF2E0B8
:101E80001F07D9F62A96E8E00C94E631A6E0B0E008
:101E9000ECE4FFE00C94C5318E010F5F1F4F86E02C
:101EA000F80111928A95E9F784E5C82E81E0D82ED1
:101EB000F12CE12CAA24A394B12C21E6822E21E05E
:101EC000922EF60181916F018F3F09F442C0F89480
:101ED000E82FE295EF70F0E021A18F70A50102C01C
:101EE000440F551F8A95E2F7CA01922F982B91A3B0
:101EF00092A18095892382A3789400C0EAE5F1E05D
:101F0000712C31E021912F3F09F46DC0A22FA295D1
:101F1000AF70B0E090968C9190E02F7002C09595D4
:101F200087952A95E2F780FD5EC0832F782A330FCC
:101F30008E169F0639F7F601319780818F3F11F099
:101F40000E94BC0850EA5A95F1F7F801EE0DFF1D0A
:101F500070828FEFE81AF80AE6E0EE16F10409F055
:101F6000B0CF46E050E0B8018CE192E00E94003230
:101F7000FF24F394009709F4F12C892BB1F186E04A
:101F8000F801ACE1B2E001900D928A95E1F781E0B1
:101F900080931B020E94CC0590931A028093190231
:101FA0008091190290911A020E94BD05059708F1CF
:101FB00080911C028093360280911D02809337022B
:101FC00080911E028093380280911F028093390213
:101FD0008091200280933A028091210280933B02FB
:101FE00010921B0206C080E0A1CF80911B028111DC
:101FF000D7CF8F2D2696EDE00C94E13180915103DF
:102000009091A705892B80937201809117028823F4
:1020100019F18091900490919104892B29F00E94EC
:10202000D80A81110E949E0A809172019091170234
:10203000892B8093720180911A018823E1F18091AC
:10204000720587FF38C08EE1E4E7F1E090E081504F
:10205000A0F591110E949E0A40E250E065EF71E008
:1020600082E791E00E940032892B21F180E2E2E7D1
:10207000F1E0A5EFB1E001900D928A95E1F7E091D2
:102080006905F0916A053097A9F080911A018823BB
:1020900059F08091720587FF07C08091720180938B
:1020A000730186E0809372010280F381E02D82E764
:1020B00091E00995089586E0C7CF2191222339F256
:1020C0009F5FC5CFEF92FF920F931F93CF93DF9344
:1020D000EC018A85811134C0EB80FC8087E5F81A19
:1020E00026E12E9DC0012F9D900D1124DC01A954E5
:1020F000BB4F1496ED91FC911597309731F05496A3
:102100006D917C9183549B4F099586E18E9D800152
:102110008F9D100D112409541B4FF80187810E94D7
:10212000C40AF80180850E94BD0A0E94FE0F188231
:1021300019861B861E821D821092B6041092B50469
:10214000CDB7DEB7E6E00C94E831CF93DF93EC0136
:102150008989811116C081E0898B8F810E94CB0A09
:102160008091A7059885892B8093A7050E94FE0F73
:10217000EA81FB81309729F06C897D89CE01069632
:102180000995DF91CF91089580911801877F809301
:10219000180182E00E94BD0A8091180184FF06C0E8
:1021A0008F7E8093180182E00E94CB0A80911801F3
:1021B00085FF06C08F7D8093180180E20E94CB0AC4
:1021C0000E94FE0F089590E080E00E94EE0590E0EE
:1021D00080E00E94D8051092A7050E94FE0F86E0BD
:1021E000E3E4F2E0DF011D928A95E9F710923D02E7
:1021F00010923C0210923E020E94100708958093B4
:10220000A6050E94E31008958091A605982F967068
:10221000963021F488600E94FF100895877FFBCFDD
:1022200021E030E001C0220F8A95EAF720958091E5
:10223000A60582230E94FF1008959091F4018095D5
:1022400089238093F401282F277091F4282F082EDA
:10225000000C330B9217130659F09091730592FFFF
:1022600007C08595859585950E9410110E94D10A19
:1022700008959091730592FB222720F9281769F0A1
:1022800080FB92F99093730580917205909173058C
:102290000E94A70E82E00E941D11089521E030E007
:1022A00001C0220F8A95EAF78091A605822B0E9431
:1022B000FF1008959091730592FF10C098E0899FD8
:1022C00090011124622B6093F4010E944E110E9430
:1022D000CC059093F3018093F20108950E944E1172
:1022E0000895809318020E94E310089510925103FC
:1022F00080911A01E4E7F1E0882361F08091720592
:1023000087FF08C08EE1DF011D928A95E9F70E94E0
:10231000E310089586E0F7CFAAE2B0E0E2E9F1E148
:102320000C94CF318DE995E02091F100DC012D93E3
:10233000CD01B5E0853A9B07B9F780919E058330C2
:1023400009F472C0B8F4813009F449C0823009F44C
:10235000B3C08091E80083FF96C280919D05909163
:102360009E059A3008F08FC2E92FF0E0E758FD4C47
:102370000C94B3318A3009F48EC08B3009F471C0EB
:10238000893039F780919D05813219F78091A10537
:102390009091A205009711F00297D9F68091E8007C
:1023A000877F8093E8008091E80082FF38C0909199
:1023B000F3008091F200029731F48091F1008130B6
:1023C00011F0863021F48091F1008093790580919D
:1023D000E8008B778093E8000E94AF04BACF809129
:1023E0009D05813A09F0B5CF8091E800877F809301
:1023F000E8008091A1059091A205892B61F460E22B
:102400008AE795E070E00E945B058091E8008B7799
:102410008093E8009ECF60E090E080E0F3CF809171
:10242000A5058111C0CF95CF80919D05813A09F016
:1024300090CF8091A1059091A205892B09F089CFB9
:102440008091E800877F8093E8008091E80080FF1A
:10245000FCCF80911A018093F1008091E8008E7783
:10246000B9CF80919D05813209F073CF8091A1058C
:102470009091A205892B09F06CCF8091E800877FAD
:102480008093E8000E94AF0480919F0580931A0119
:102490000E9476115ECF80919D05813209F059CF5F
:1024A0008091E800877F8093E8000E94AF048091CC
:1024B000A005809378054DCF80919D05813A09F064
:1024C00048CF8091E800877F8093E8008091E80002
:1024D00080FFFCCF80917805BECF803899F082389C
:1024E00009F0D1C18091A1058F70873008F0CBC170
:1024F0008093E9008091EB0085FB882780F910929A
:10250000E90006C080919A0590919B059111826027
:102510009091E800977F9093E8008093F1001092EB
:10252000F1008091E8008E77AAC1882309F498C150
:10253000823009F0A8C180919F0581119BC18091D3
:10254000A1058F702FEF280F263008F09CC18093D3
:10255000E9002091EB0020FF8DC1933031F4809190
:10256000EB0080628093EB0085C19091EB0090615D
:102570009093EB0021E030E001C0220F8A95EAF74A
:102580002093EA001092EA008091EB008860EACF85
:10259000811179C110919F051F778091E3008078A8
:1025A000812B8093E3008091E800877F8093E8008F
:1025B0000E94AF048091E80080FFFCCF8091E3008F
:1025C00080688093E30082E0111183E08093A50589
:1025D0005AC18058823008F056C120919F05309131
:1025E000A0052C3DE3E03E07A1F583E08A838AE263
:1025F00089834FB7F894DE01139620E03EE051E264
:10260000E32FF0E050935700E49120FF03C0E295E0
:10261000EF703F5FEF708E2F90E0EA30C0F0C7960A
:102620008D939D932F5F243159F74FBF8091E80020
:10263000877F8093E8006AE270E0CE0101960E94F5
:102640005B058091E8008B778093E8001CC1C09601
:10265000E7CF8091A1059091A205432F55274330E4
:10266000510509F44AC078F54130510509F485C097
:102670008BE590E0E6EDF6E04230510509F003C14C
:102680002091E800277F2093E8002091A305309156
:10269000A4058217930708F49C0140E02115310539
:1026A00009F070C041116EC08091E80082FDC9CF71
:1026B0008091A505882329F2853019F28091E800E0
:1026C00083FFF2CFBECF4132510509F447C04232F9
:1026D000510509F0D8C08330910508F0D4C0FC0141
:1026E000EE0FFF1FEC59FE4F0190F081E02D8F5946
:1026F0009E4FDC018C9190E01DC0332721303105C5
:10270000E9F02115310579F022303105F9F0233057
:10271000310509F0B8C0E3E4F7E0E4918E2F90E0D2
:10272000E3E4F7E007C0E1EAF7E0E4918E2F90E000
:10273000E1EAF7E0009709F4A6C0A2CFEDE7F7E0E1
:10274000E4918E2F90E0EDE7F7E0F4CFE1E6F7E0DB
:10275000E4918E2F90E0E1E6F7E0ECCF8330910535
:1027600008F091C0880F991FFC01E659FE4F0190B7
:10277000F081E02D89E090E083CF82E190E0E1E319
:10278000F7E07ECF8091A505882309F45ACF8530E4
:1027900009F457CF8091E80083FD53CF8091E80082
:1027A00082FD82CF8091E80080FF78CF9091F30086
:1027B0008091F2002115310519F08830910550F013
:1027C00041E0089709F040E08091E8008E7780931F
:1027D000E80064CF44914093F100319621503109D3
:1027E0000196E8CF803809F04EC08091E800877FDD
:1027F0008093E80080919C058093F10092CE811136
:1028000042C010919F051230F0F58091E800877F5B
:102810008093E80010939C050E94AF04112311F0EF
:1028200084E005C08091E30087FDFACF81E08093CA
:10283000A50542E061EC81E00E94CE0442E261EC39
:1028400084E00E94CE0442E261EC82E00E94CE0469
:1028500042E260EC83E00E94CE048091A50513C0A3
:1028600080919F05813079F481E0933009F080E018
:1028700080939B051092E9008091E800877F809308
:10288000E8000E94AF048091E80083FF0AC08091B5
:10289000E800877F8093E8008091EB00806280935E
:1028A000EB00AA96E3E00C94EB31EEE8F4E0128E34
:1028B000138E8FEA90E09183808325E0248F88E84F
:1028C00093E1938382838AE090E09583848344E15B
:1028D00050E05783468368E070E071876087938794
:1028E00082874EE150E0558744879787868740E589
:1028F00050E0518B408B738B628B68E270E0758B7C
:10290000648B62E370E0778B668B68EC70E0718FAC
:10291000608F158E978F868F51A340A322A30E94AC
:10292000200E0E9476111092730510927205E3E753
:10293000F5E08081846080838091720590917305B9
:102940000E94A70E0E94F50C0895A4E1B0E0EBEA06
:10295000F4E10C94C531A0904B03B0904C0381E09E
:1029600090E090934C0380934B038AE8C82E84E058
:10297000D82E00E0760110E015C0F40125913491C5
:10298000472D612F802F0E94680E82E0880E911CD7
:102990007394E7E07E12F1CFFEE0EF0EF11C1F5FB3
:1029A000163019F04701712CE8CF0F5F84E5C80E8F
:1029B000D11C0430F9F60E9455141A8219821C8227
:1029C0001B821E821D8218861F8288EC90E09A87E7
:1029D00089870BE911E04AE050E0B801CE01019689
:1029E0000E945F32065F1F4F0B3EE1E01E0799F722
:1029F0007E01FBE0EF0EF11C8AE0F70111928A954F
:102A0000E9F74AE050E0B801C7010E945F32065F73
:102A10001F4F0B3DF2E01F07A1F7B0924C03A092AD
:102A20004B036496EDE00C94E13180E00E948E0E41
:102A300060E086E290E00E943B320E94A5140E9472
:102A4000580E81E00E948E0E0895CF92DF92EF9291
:102A5000FF928FEF9FEF4430510508F46AC0FB01ED
:102A6000C080D180E280F3800E947611809172054F
:102A7000C0FA80F9B701A6017695679557954795F5
:102A800040FB81F9B701A60122E07695679557953D
:102A900047952A95D1F740FB82F9B701A60133E0AB
:102AA00076956795579547953A95D1F740FB83F909
:102AB000B701A601E4E07695679557954795EA95A5
:102AC000D1F740FB84F9B701A601F5E0769567954B
:102AD00057954795FA95D1F740FB85F9B701A601BF
:102AE000A6E07695679557954795AA95D1F740FB4F
:102AF00086F9B701A601B7E0769567955795479592
:102B0000BA95D1F740FB87F98093720580917305E0
:102B1000D0FA80F9D1FACC24C0F8C0FA81F98093B8
:102B2000730580917205909173050E94A70E90E045
:102B300080E0FF90EF90DF90CF9008950E94761193
:102B40002FEF84E39CE0215080409040E1F700C0EB
:102B5000000088E19CE00FB6F894A895809360008F
:102B60000FBE90936000FFCF882321F00E94BD0A22
:102B70000E94FE0F0895882339F09091A705982BA5
:102B80009093A7050E94FE0F0895882321F00E94CC
:102B9000C40A0E94FE0F0895882321F00E94CB0AE8
:102BA0000E94FE0F0895882309F455C0823879F4F5
:102BB0000E94040681FF4FC089E30E941D0B0E9402
:102BC000FE0F89E30E94F20A0E94FE0F08958338E7
:102BD00059F40E94040680FF3EC083E50E941D0B4D
:102BE0000E94FE0F83E5EECF843859F40E9404065C
:102BF00082FF31C087E40E941D0B0E94FE0F87E414
:102C0000E1CF9CEF980F913AE8F290E2980F98305C
:102C100050F4877091E001C0990F8A95EAF7892FE7
:102C20000E94C40AD1CF9BE5980F933028F490E01E
:102C300080E00E94EE05089598E5980F973128F4FA
:102C400090E080E00E94D8050895803F20F00E9427
:102C500037070E9410070895CF93DF93EC010E947D
:102C6000D315CE010E94010C9E01205E310928304F
:102C7000310510F0CD2B29F40E94C515DF91CF91BD
:102C800008950E94B415FACFCF93C82F8823C9F0B6
:102C90008238C9F40E94040681FD13C089E30E94B2
:102CA0001D0B0E94FE0F2FEF81EE94E0215080401B
:102CB0009040E1F700C0000089E30E94F20A0E9400
:102CC000FE0FCF9108958338A1F40E94040680FD81
:102CD000F8CF83E50E941D0B0E94FE0F2FEF81EEBF
:102CE00094E0215080409040E1F700C0000083E56F
:102CF000E4CF8438A1F40E94040682FDE2CF87E489
:102D00000E941D0B0E94FE0F2FEF81EE94E02150D8
:102D100080409040E1F700C0000087E4CECF8CEF08
:102D20008C0F813A88F580911A01882301F18091F6
:102D3000720587FF1CC0EC2FE695E695E695F0E05E
:102D4000EE58FE4F828190E04C2F477021E030E03A
:102D500002C0220F331F4A95E2F782239323892B67
:102D600079F08C2F0E94F20A0E94FE0F09C0E4E75E
:102D7000F1E08191C817A9F321E0EA37F207C9F71A
:102D80008C2F0E941D0B9BCF80E28C0F883048F463
:102D9000C77081E001C0880FCA95EAF70E94CB0A8C
:102DA0008ECFEBE5EC0FE33040F4F0E0ED5DFE4F4D
:102DB000808190E00E94EE0584CFE8E5EC0FE731DA
:102DC00050F4F0E0EE0FFF1FEA5DFE4F808191812D
:102DD0000E94D80576CFC03F08F473CF8C2F0E9495
:102DE00052080E9410076DCF1F93CF93DF93182FC7
:102DF000C091AE04D091AF04893321F0C091AC04EE
:102E0000D091AD04812F0E944416209739F4812F70
:102E10000E94D315DF91CF911F9108958FE99FE014
:102E20000197F1F700C000002197EFCF0F931F9398
:102E3000CF93DF93C42FD22FFC0182818823A9F086
:102E40004093B4040E94CC059093B3048093B204E1
:102E5000C77081E001C0880FCA95EAF70E94CC15BF
:102E6000DF91CF911F910F9108951091B404141325
:102E700036C08091B2049091B3040E94BD052091A8
:102E8000A6043091A7048217930748F5C0E2CD0F3E
:102E90001D17B9F080E2810F883040F4177081E08F
:102EA00001C0880F1A95EAF70E94C515C83048F48A
:102EB00081E09D2F977001C0880F9A95EAF70E94D4
:102EC000CC15802F0E94F416C83050F6D77081E0E0
:102ED00001C0880FDA95EAF70E94C515C1CFC77007
:102EE00081E001C0880FCA95EAF7F6CFB0E0A0E014
:102EF000ECE7F7E10C94C831EC018AE0A82E2881B8
:102F0000222309F48FC02130C9F599818A8191303B
:102F100021F422960E94F41605C0923029F42296DC
:102F20000E9444162196EBCF933021F422960E9402
:102F3000D315F8CF943011F02196F4CF229630E0DB
:102F400020E0AE014F5F5F4F8053990B8A309105AF
:102F500050F02150310930F38FE99FE00197F1F7EC
:102F600000C00000F6CFA29EB001A39E700D1124F8
:102F70009C01260F371F8981EA01E3CFE22FF0E0A1
:102F8000E650FE4FB490822F86958695869590E008
:102F9000FC01E651FE4FE4902770F12C022E02C096
:102FA000F594E7940A94E2F731E0E322FF24FC0170
:102FB000E652FE4FC490D12C022E02C0D594C79485
:102FC0000A94E2F731E0C322DD24FC01E653FE4F10
:102FD000049110E002C0159507952A95E2F701705B
:102FE0001127E114F10419F081EE0E944416C11476
:102FF000D10419F086EE0E9444168B2D0E94F4161F
:10300000C114D10419F086EE0E94D315E114F10425
:1030100019F081EE0E94D3150115110509F482CF34
:103020008CE278CFCDB7DEB7EAE00C94E431CF93F1
:10303000DF93EC010E94010C9E01205E31092830D3
:10304000310510F0209741F40E94CC158C2F0E947E
:103050004416DF91CF9108950E94BB15F7CF6623E8
:1030600029F02091A70522602093A7059C013056E6
:10307000211540E2340720F0305E2115304108F47C
:1030800099270E9417180895B0E0A0E0EAE4F8E15B
:103090000C94CB317C018B01D42E8091180182FFDE
:1030A0008CC0C0917403D0917503CE15DF0521F05B
:1030B000E114F10409F081C0809118018B7F8093A5
:1030C000180181FD73C08091720390917303A80170
:1030D000481B590B81E020911601309117014217CE
:1030E000530708F480E08170F82E80911801F0FAFF
:1030F00081F980931801FE0183E0F695E7958A95A2
:10310000E1F7EE71FF27EE5AFC4F20813181AE01CD
:103110004F70552781E090E002C0880F991F4A95B3
:10312000E2F7FF2009F444C0822B932B9183808324
:103130008091510381FF08C08091180180618093C4
:10314000180182E00E94C40A8091510385FF08C0E3
:103150008091180180628093180180E20E94C40A65
:103160006F2DCE010E942F18DD2031F08091A9042F
:1031700085FF02C086FF3BC08091AC049091AD04F6
:103180000E94EB0C80917403909175039C01305662
:10319000211540E2340720F0305E2115304108F45B
:1031A00099270E942C160E94C4101DC081E09BCF5D
:1031B0008095909582239323B9CFC70199279701D2
:1031C0003056211540E2340728F0305E2115304199
:1031D00008F0C7010E942C1680917403909175032A
:1031E0008E159F0501F31093730300937203CDB7FF
:1031F000DEB7E7E00C94E73168EE7EEF90E080E028
:103200000E94593260E082E090E00E943B3260E030
:1032100083E090E00E943B321092180260E084E06C
:1032200090E00E943B3264E082E290E00E943B32F8
:1032300060E085E090E00E943B3260E086E090E054
:103240000E943B326FEF87E090E00E943B3240E00B
:1032500050E0BA0188E090E00E944D3260E08DE0DD
:1032600090E00E943B3240E050E0BA0188E190E0FB
:103270000E944D3260E087E190E00E943B3240E0E6
:1032800050E0BA018CE190E00E944D3270E060E0C5
:1032900080E290E00E94593240E050E0BA0188E1BB
:1032A00090E00E944D3280E00E948E0E0E94151523
:1032B00040E050E0BA018FE090E00E944D3240E0E3
:1032C00050E0BA0183E190E00E944D320895A4E0FD
:1032D000B0E0EDE6F9E10C94C7317C01DC01139616
:1032E0004D915C91149711966C9111978C910E945D
:1032F00011068111B4C161E0C7010E94D50D8C0196
:10330000F70182818111A9C0D70112968C91811198
:10331000E3C00031BFE51B0709F4A5C10131EFE5AA
:103320001E0709F4A4C16801E7E5DE1A811135C062
:103330000115F7E51F0708F441C0011528E512073C
:1033400060F561E572E08C2D0E94B50E892B29F5A0
:1033500086E18C9DF0018D9DF00D1124E954FB4F09
:103360008681813009F085C180915102909152028D
:10337000892B99F08091530290915402892B69F026
:103380008091550290915602209157023091580237
:10339000822B932B892B09F476C10238BFE51B07DA
:1033A00009F40AC208F07DC10038FFE51F0709F4DF
:1033B000E4C101382FE5120709F4F0C1BFEFCB16C5
:1033C000D10411F008F07DC180910C0190910D01A4
:1033D0008C159D0524F4D0920D01C0920C01F701CB
:1033E000828196E19C9D50019D9DB00C1124950118
:1033F00029543B4F6901D90150968C935097928183
:1034000016968C911697992309F4F1C11A961C937C
:103410000E9319978F5F16968C930E94CC05F60138
:10342000968785878091170287838091A705909161
:103430005103892B80870190F081E02D309741F076
:10344000D60154966D917C91C50183549B4F09958B
:103450001093B6040093B50434C180910C0190918F
:103460000D01019609F450CF77EBC72E74E0D72EEB
:10347000B12CA12C9924939480910C0190910D0171
:103480008A159B050CF440CFF60186818823E9F06C
:10349000818592850817190739F48091B5049091B8
:1034A000B6040817190789F0D6011F969C921F973A
:1034B0001C961C930E931B97C6010E94A510C60173
:1034C00006960E9462101092A705BFEFAB1ABB0AC6
:1034D000E6E1CE0ED11CD0CF980122513F452031DC
:1034E000310508F010C78FEF93E00E942D32811153
:1034F000A6C06EEED62ED00E0BED12E0D11036C067
:1035000019821A821B821C8299249A9468012FEFD7
:10351000C21AD20AC8010E942D3289831A828823D6
:1035200009F48DC0813009F07FC0580132E0A30E4C
:10353000B11CC6010E942D32C82E8A83882309F44B
:103540007EC0C5010E942D32D82E8FEF8C0D8330A6
:10355000D8F4580143E0A40EB11CDB82DD2021F039
:10356000CE0101960E9476178501D0CF0115F4E0B7
:103570001F0709F464C0C8010E942D32811101C0E7
:10358000DA940F5F1F4FBACF8BEF8C0D833030F57D
:10359000C8010396DB825C01DD2031F3580154E061
:1035A000A50EB11C0E942D328C838823E9F28B81F9
:1035B0009C818130AFEF9A0710F0982F8827B6E0F2
:1035C000CB1631F0E7E0CE1631F00E945528CCCF73
:1035D0000E942F28C9CF0E94B627C6CFF4E0CF1291
:1035E000C3CF580124E0A20EB11CC80103960E946B
:1035F0002D32DD2021F1882311F18150990B989E05
:103600009001999E300D11244D2D4150550BCA014A
:10361000820F931F019708F4A7CFAFE9BFE011977E
:10362000F1F700C00000F6CFCE0101960E94761798
:1036300056019ACF81E00E944E110E9404118091A0
:10364000F401877061F0D70112968C91882339F0CC
:103650008091730582FF03C082E00E941D112496B1
:10366000EBE00C94E33181E00E941011E6CF82E0A0
:10367000FBCF823009F091CE809155029091560295
:10368000892B09F48ACE26E12C9DC0012D9D900D39
:10369000112489549B4FDC0150961C920E94A51066
:1036A0007CCE03383FE5130709F493C004384FE597
:1036B000140709F083CED70112968C9181111092D4
:1036C00051038091A90480FF39C00E94CC056C0190
:1036D000D70112968C91882309F4A5C08091180116
:1036E00082FF08C029E232E040E0B60190E080E0CD
:1036F0000E9444180B31BCE51B0709F486C00C314D
:10370000ECE51E0709F487C090911801892F8E7F80
:1037100090FF81600A31FCE51F0709F47FC0C801F2
:103720009056811520E2920728F0905E8115904115
:1037300008F087C01092750310927403033FBCE534
:103740001B0709F4CAC108F06CC1083DFCE51F075E
:1037500009F4BDC1093D2CE5120709F4D6C1073DA6
:103760003CE5130709F069C106E221EE41EE67ED81
:103770007CE5C7010E94161762CFF701828188237A
:1037800009F49FCF8091510381FF04C082E00E9421
:10379000C51597CF82E00E94CC1593CFD701129622
:1037A0008C91882309F48DCF8091510380FF02C052
:1037B00081E0EDCF81E0EFCFF7018281882309F42A
:1037C00080CF8091510382FF02C084E0E0CF84E08B
:1037D000E2CFD70112968C91882309F472CF8091A1
:1037E000510383FF02C088E0D2CF88E0D4CF882382
:1037F00009F467CFF9018189882309F462CFC501F3
:1038000083549B4F0E9462105CCF809118018160AD
:103810008093180184CF809118018E7F80931801C6
:103820000E94C4107CCF809118018F7E013E11054B
:1038300031F0053E1105C9F4809118018F7D809308
:1038400018018091180180FF79CFD70112968C91D1
:103850000832110528F50E31110508F074C0043046
:10386000110580F5811166CF69CFC8019056811589
:1038700040E2940720F0905E8115904110F780910E
:10388000180182FF5BCF8091AB0481FD57CF29E205
:1038900032E040E0B60190E080E00E9444184ECF54
:1038A0000933110558F40D32110518F40B321105C6
:1038B000C9F69091A90492FDD5CF08C00436110530
:1038C000C1F3D0CF9091A90494FDCCCF882309F403
:1038D000A1C09091510380911702282F292B322FDC
:1038E0003D7FB1F110927503109274033091A904D9
:1038F00031FD2EC0F80143E0F695E7954A95E1F7D2
:10390000EE71FF27EE5AFC4F98012F70332781E0AC
:1039100090E002C0880F991F2A95E2F78095909554
:1039200020813181822393239183808360E0C801C9
:103930000E942F18809117028D7F0E94A90A82E0B1
:103940000E941D117CCE9091A90493FD8BCFBECF18
:1039500038E0F701A9E2B2E001900D923A95E1F763
:1039600010922B0210922D0210922C02A090740340
:10397000B09075030A151B05B1F53091A90435FF08
:1039800032C04091180141FB992490F841FF02C0D8
:1039900036FF29C04091720350917303B601641B36
:1039A000750B4091A6045091A70464177507D8F4CD
:1039B00091FF08C08091180180618093180182E016
:1039C0000E94C40A8091510385FF08C080911801AC
:1039D00080628093180180E20E94C40A692DC501AB
:1039E0000E942F182CCE9091180121FB91F99093F1
:1039F00018018D7F0E94A90A109375030093740328
:103A0000D0927303C09272038091180184608093F6
:103A1000180195CF970140E0B601C8010E944418F3
:103A20000ECE053F4CE5140709F463C008F45BC0F3
:103A3000063F8CE5180709F462C0D70112963C9145
:103A4000332309F46DC41092B4040330BDE51B07A1
:103A500008F061C00A3FECE51E0730F4C80182504F
:103A60009C45449708F061C00E94FC0D909373053B
:103A70008093720501313CE5130709F46CC108F02D
:103A8000E6C009305CE5150709F453C108F0B1C080
:103A900005309CE5190709F444C108F096C00330CD
:103AA000BCE51B0709F433C108F037C180917205EA
:103AB00081600230FCE51F0709F42CC1809172057A
:103AC000909173050E94A70E0E947611B8CD07E26F
:103AD00025EE45EE68ED7CE54CCE06E221EE40EEAB
:103AE00063EF7CE546CE07E225EE44EE64EF7CE52D
:103AF00040CE06E221EE42EE65EF7CE53ACE07E2EB
:103B000025EE46EE66EF7CE534CE08E221E045EE98
:103B100069ED7CE52ECE0136FDE51F0709F4A4CF43
:103B2000053A2DE5120709F49FCF06315CE515072C
:103B300009F4FBC30A358DE5180709F465C108F0DF
:103B40003EC10115ACE51A0709F444C10E3D1C4500
:103B500009F44DC1F70186819781009709F458C196
:103B60000E941609182F092FF701D280C580C29430
:103B70003FE0C3228091F4018770C1F0AD2CDD20BD
:103B8000B1F0892F807F803421F080E2810F88306E
:103B900068F08091730582FF09C082E00E941D11C8
:103BA0008091F4018770AA24A3948111A12C902EF6
:103BB00092942FE09222FBE0F91508F4B6C1E92DAA
:103BC000F0E0ED57FD4C0C94B331809172058062AA
:103BD00007302CE5120709F49DC0809172058061C1
:103BE00008303CE5130708F495C0809172058064A5
:103BF00091C0809172058B7F0D304CE5140709F45C
:103C000089C088F40B308CE5180709F498C08091BE
:103C100072058C600C309CE5190708F47BC080911C
:103C200072058D7F77C0809172058F7E0F30ACE575
:103C30001A0709F46FC080917205877F0031BCE5D7
:103C40001B0708F467C0809172058F7D63C00D3F2C
:103C5000ECE51E0709F47BC058F505312CE5120789
:103C600009F483C098F480917205837F03314CE599
:103C7000140709F44FC008F472C00E9476119091A5
:103C80007205892F97FB87F9805844C00B3F8CE55C
:103C9000180709F44AC008F056C080917305816086
:103CA0000A3FACE51A0709F009CF8093730506CFE8
:103CB0000130BDE51B0709F464C0C0F480917305B1
:103CC0008C7F0F3FFCE51F0781F3809173058360B4
:103CD00001152DE5120748F380917305982F9095F3
:103CE00091708E7F892B90FB81F9DFCF01363DE506
:103CF000130709F44CC0053A4DE5140709F44EC00A
:103D000002305DE5150709F0D9CE60E03BC0809137
:103D10007205826080937205D1CE809172058460B5
:103D2000F9CF809172058860F5CF8091730582602C
:103D3000BCCF0E947611809172058068EBCF809194
:103D400072058E7FE7CF809173058E7FAECF809115
:103D500073058D7FAACF809172058F7BDBCF0E9488
:103D60007611809172058F77D5CF8091720582FB95
:103D7000992790F921E0922790FB82F990FB83F933
:103D8000C9CF61E08EE090E00E943B3297CE9091E7
:103D90007205892F8F7E94FF8061BCCF9091720550
:103DA000892F8E7F90FF8160B5CF80919201811124
:103DB00004C089E20E94F20AE3C285E3FBCF0C351E
:103DC000EDE51E07B9F010F1073A1D4509F0C2CE26
:103DD0000E949E150E9476113FEF44E35CE0315053
:103DE00040405040E1F700C000000E94C70C0E9414
:103DF000FC18EECF8091730582FB882780F991E053
:103E000089270E943911A6CE81E0FBCF80E0F9CF4F
:103E1000828100811181882369F0C8010E94670DA9
:103E2000D82E682FC8010E94AF0BB8018D2D0E94BB
:103E30004A0D96CEC8010E947B0BD82EF6CF202FBC
:103E40002F70B22E802F807F19F0B29490EFB9229C
:103E5000DD20A9F0BB2059F080E2810F883010F0FE
:103E6000111107C08B2D0E94CB0A0E94FE0F812FDB
:103E70005AC08091A705B82AB092A705F6CF812F26
:103E80000E94D315BB2009F450C080E2810F883016
:103E900010F0111104C08B2D0E94C40A03C08B2D99
:103EA0000E94BD0A0E94FE0F40C0302F3F70B32E0B
:103EB000802F807F803219F0B29480EFB8221123D6
:103EC00021F1113009F4AEC0DD2009F4B7C0CC20D7
:103ED00009F47FC020E0D7014C9111965C911197B5
:103EE00012966C91129713967C91139714968C915D
:103EF0000E94B20D8091AB0481FDB9CFF70185819D
:103F000080FFB5CF8F70858364C08091730582FD7B
:103F100040C0DD20C1F1BB2029F08B2D0E94CB0ACF
:103F20000E94FE0F80E00E944416A92DA850BB0BF2
:103F3000149710F40E940406812F902F0E94E60B24
:103F40008111C2C11092950110929401AA20B1F082
:103F50008091F40180FD12C0D70112961C928595C4
:103F6000859585950E944E11C7010E946719809121
:103F7000F4018595859585950E94101160E0C70133
:103F80000E94D50D6CCB80E00E94D315BB2069F256
:103F900082CFDD2011F1C11004C0809117028B295E
:103FA00019C041E0C41206C0809117028B290E94FB
:103FB000A90ABBCF8091AA04823078F3C812EDCF52
:103FC0000E949E0A909193018B2D892B89138093D7
:103FD00093018B2D0E94CC15A8CFC11003C00E9465
:103FE0009E0A17C08091AA0451E0C51216C0823003
:103FF00008F49BCF809151038B2109F496CF0E9446
:104000009E0A909193018B2D80958923891380932B
:1040100093018B2D0E94C51588CF823000F3C81202
:10402000DECF83CF8091B004DD2021F08C1508F421
:104030007CCFCFCFC81608F078CFEBCFCC2049F398
:104040008091AE049091AF04193321F08091AC04BB
:104050009091AD040E94EB0C812F0E94D31565CF87
:10406000802F86958695837069F0813009F05DCF49
:10407000812F902F9370D11002C090E080E00E94B9
:10408000D80553CF812F902F9370D11002C090E0AC
:1040900080E00E94EE0549CF812FDD2029F00E94AB
:1040A00052080E94100741CF0E943707FACF802F95
:1040B000837091F5D11039CF412F429546954770C5
:1040C000440F440F812F8F70042E01C0880F0A9473
:1040D000EAF7212F207114FF07C02FE030E001C064
:1040E000220F4A95EAF72095302F36953695337092
:1040F000323069F050F440911802313029F0822BAF
:1041000084230E94711111CF842B822BFACF282B8C
:10411000809118028227F5CF8695DD2011F0802F3F
:104120008170882309F401CF412F4295469547704D
:10413000440F440F812F8F70042E01C0880F0A9402
:10414000EAF7212F207114FF07C02FE030E001C0F3
:10415000220F4A95EAF72095302F36953695337021
:10416000323069F050F44091A605313029F0822BAD
:1041700084230E94FF10D9CE842B822BFACF282BC8
:104180008091A6058227F5CFF02FFF70BF2EDD208E
:1041900029F08F2F0E944E11812F1CCF812F0E945A
:1041A000C5158B2D0E941011C0CE123F89F160F40D
:1041B000103FB9F0113F81F0DD2009F480C0C1103B
:1041C00056CE802F8F7128C0133F49F1143FA1F7BD
:1041D0008091730582FD2FC0802F8F71DD2011F338
:1041E0001BC08091B004DD2079F0C81608F09DCE88
:1041F000202F2F7181E090E001C0880F2A95EAF707
:104200009091A6058927B5CF8C1508F48ECEF0CFF6
:10421000802F8F71D110C6CF0E944E1186CE80E0C4
:10422000DD2009F4A6CF81E0902F9F7101C0880F97
:104230009A95EAF79ECF8091AA04823040F1DD2062
:10424000D1F09091F4019770943041F40E94D10A1A
:10425000802F8F710E941011A12C67CEC816E0F735
:10426000202F2F71B22E822F0E944E1163E08B2DD2
:104270000E945A11F1CFC81630F00E94D10A64E0B2
:10428000802F8F71F5CF81E00E941D11E5CFDD20D9
:1042900059F0302F3F71B32E832F0E944E1163E0EF
:1042A0008B2D0E945A1141CE81E00E941D1141E0E8
:1042B0004C1508F03ACE82E00E941D1136CEC11096
:1042C000BFCE802F8F716ECFDD2019F0C1103ACE96
:1042D0003DCEC11037CE20E0F7014081518162818F
:1042E000738184810E94B20D8091AB0483FF2ACE3A
:1042F0008091940190919501029709F023CE812F2E
:104300000E94F4161FCE0031FFE51F0709F492C981
:1043100001312FE5120711F00C94931982E08BC93B
:1043200006314CE5140709F015CC80915103982F04
:104330009A7A2091A80420FF04C0482F447409F001
:1043400090E021FF04C0482F417109F090E022FF66
:1043500004C0482F487809F090E023FF03C0827220
:1043600009F090E0332309F420CD81E0911101C0E0
:1043700080E08093920189E2911185E30E941D0BF8
:104380000E94FE0F5CC9B0E0A0E0E9ECF1E20C9401
:10439000CA318091AD01807F31F48091AA01C09132
:1043A000F101811107C0CDB7DEB7E8E00C94E6312A
:1043B0002196C7708091B0018C17A9F3F090A801E5
:1043C000E090A901C090AB01D090AC01A6016E2D88
:1043D0008F2D0E941106D0E08111EACF8E0183E07B
:1043E000000F111F8A95E1F7F801EF54FE4F81810C
:1043F0008E11DECF80818F11DBCF82818111D8CFEA
:10440000E380F480EC18FD0860E088EA91E00E9407
:10441000D50D8091A6049091A704E816F90640F600
:104420008091AD018F7080618093AD01F801EA54F5
:10443000FE4F80818F708061808388EA91E00E94C6
:1044400067190E94710BAFCFA5E1B0E0EAE2F2E29A
:104450000C94C1318C0185E0F801DE015196019088
:104460000D928A95E1F7D8014C9011965C901197C6
:104470001296EC9012971396CD90DC9060E088EA4B
:1044800091E00E94D50D88EAA82E81E0B82E809098
:10449000AB019090AC01A4016091A9018091A801A9
:1044A0000E9411068111B6C1F090AA01F601E81927
:1044B000F9094F0160E0FF2009F459C1C5010E94CC
:1044C000D50D6090A6047090A7043090AD018614BD
:1044D000970408F0FFC04091AB015091AC01B0903F
:1044E000A801A090A901832D807F6A2D09F099C0B1
:1044F0008B2D0E941106FE2C811127C0D801119628
:104500008C9111978A1121C08C918B111EC0209122
:10451000AE013091AF0116968D919C912817390705
:10452000A1F4E11012C0832D8F7080618093AD01E2
:1045300088EA91E00E9467198091AD01F8018583B6
:104540008F2D6596E1E10C94DD31F4EF6F16F1E00B
:104550007F0620F48091AB0480FF21C0A601652D69
:10456000842D0E941106811118C081E08E2580FFE4
:1045700016C04E2D652D842D0E94510B882379F095
:1045800088EA91E00E94671988E0E8EAF1E0DF013B
:104590001D928A95E9F7F12CD3CF80E0E8CFA601F0
:1045A000652D842D0E941106811124C081E08E2585
:1045B000B82FB170CB2E80FF2BC04E2D652D842DD2
:1045C0000E94510BD82E811123C0498A5A8A8989A9
:1045D0009A890E94960D292F22952F70223060F023
:1045E000243088F49F7061F0F8019581907F41F448
:1045F000FD2CA6CF80E0DCCF9F7011F08823C1F3A3
:10460000805E8830A8F3C8010E946719DC2CF0CFC7
:10461000EE2009F495CF8091AD0181608093AD01CA
:10462000BACF8B2D0E941106811124C0D80111969A
:104630008C9111978A111EC08C918B111BC02091F7
:10464000AE013091AF0116968D919C911797281766
:10465000390781F4E1100EC015963C92C8010E9402
:10466000671988E0F801A8EAB1E001900D928A95F7
:10467000E1F766CFC8010E94A30D882339F1EE202F
:1046800029F18091AD018032A0F02091A8013091F4
:10469000A9013A8729871B86DD86CC868E87809183
:1046A000AE019091AF01988B8F87CE0109960E9441
:1046B000671988E0F801A8EAB1E001900D928A95A7
:1046C000E1F70E94C321FF24F3943ACFC8010E946E
:1046D0006719F9CF832D807F09F452CF9090A801FC
:1046E0008090A9014091AB015091AC01682D892DBA
:1046F0000E94110681111CC0F8018181881118C027
:104700008081891115C02091AE013091AF01868161
:1047100097812817390761F4E1100AC03582C80172
:104720000E94671988E0D5011D928A95E9F708CFA4
:10473000C8010E94A30D882349F2EE2039F280912E
:10474000AD01803208F4B5CF2091A8013091A901C4
:104750003A8329831B82DD82CC828E838091AE01D5
:104760009091AF0198878F83CE010196A0CF88EA00
:1047700091E00E94D50D8091A6049091A70488161F
:10478000990680F6FE2CEE2009F4A0CFE090A80157
:10479000D090A9014091AB015091AC016D2D8E2DAF
:1047A0000E941106811128C0F80181818D1124C059
:1047B00080818E1121C02091AE013091AF018681A0
:1047C000978128173907C1F48091AB0482FD49CF46
:1047D0009091AD0190FD45CF907F09F442CF80913B
:1047E000AD018583903F09F439CF982F907F905F7A
:1047F0008F70892B858332CFC8010E94A30D811150
:1048000058CF8091AD0181608093AD01C8010E94B5
:10481000671996CEEE2009F459CFC8010E94A30D66
:10482000F82E882309F452CF88E0F801A8EAB1E015
:1048300001900D928A95E1F78091A8019091A901CC
:104840000E94960D0E94C3217BCEA0E1B0E0EBE276
:10485000F4E20C94D03129873A874B875C876D87C7
:104860007E878F87988BCE0109960E942422811122
:104870002FC088E0FE013996DE01119601900D925D
:104880008A95E1F74C855D856A8589850E941106C8
:1048900081111EC0A091B001B0E0CD0101968770DA
:1048A00099272091F10128171906E1F093E0AA0F4A
:1048B000BB1F9A95E1F7AF54BE4F98E0FE013196C9
:1048C00001900D929A95E1F78093B0010E94710BCF
:1048D0008091F1019091B001891312C06096E2E0DD
:1048E0000C94EC310E9476111092B0011092F101FB
:1048F00088E0E8EAF1E0DF011D928A95E9F7E8CF68
:10490000B8E08B9FC00111248F549E4F0E94242237
:10491000882321F38091F10190E001968770992717
:104920008093F101D5CFEF92FF920F931F93CF9316
:10493000DF9380917903882361F0C09178038CE044
:10494000F82E80917903C81748F0109279031092DD
:104950007803CDB7DEB7E6E00C94E831EE24E394BB
:10496000EC0EE09278030C2F10E0CF9DE0011124B3
:10497000C658DC4F4B815C81698188810E94110699
:1049800081111DC08E819F81892B21F48885998595
:10499000019651F4288139814A815B816C817D8146
:1049A0008E819F810E942524F09EF001F19EF00DE2
:1049B0001124E658FC4F148213821092A705CE2DC5
:1049C000C0CF10928D0410928C0410921901809126
:1049D0008B0480938A040E944A060E9493240895BF
:1049E000B0E0A0E0E6EFF4E20C94C131C0918A049B
:1049F00097E0892E01E010E02CE0322E3EEF932E5E
:104A00004424439480918B048C1309C00E94932406
:104A10000E944A06CDB7DEB7E1E10C94DD31D0E06B
:104A2000FE01EE0FFF1FEE57FB4F80819181889EA4
:104A3000D001899EB00D1124A652BC4F14962C9122
:104A40001497211158C050907903EAE7F3E030E061
:104A500020E0712C5D01251508F04BC0E284F38441
:104A6000D501CD90DC906FEF7FEF612C462D50E0AB
:104A7000DA01AA0FBB1FAC0DBD1D0D90BC91A02D7E
:104A8000109731F0EA16FB0609F4BA016394EECFF1
:104A90006F3F7607A9F1D80102C0AA0FBB1F6A9524
:104AA000E2F77A2AB801062C02C0660F771F0A9433
:104AB000E2F7AB014150510974161506F9F4329E24
:104AC000F001339EF00D1124E658FC4F889ED00172
:104AD000899EB00D1124A652BC4F12962D913C9187
:104AE00013973783268390829182918780871596CA
:104AF0004C920E941C062196C37084CF14821382AC
:104B00002F5F3F4F3C96A7CFA9E1B0E0EAE8F5E27E
:104B10000C94C031942F498B252F5A8B6B8B7C8B37
:104B20008D8B4C895D89622F892F0E94110681111E
:104B300009C08091940190919501019690939501FF
:104B4000809394018B8981111092A7051D861E8682
:104B50001F86188A85E0FE017196DE011996019084
:104B60000D928A95E1F78091730582FF1EC08091B6
:104B7000900490919104892BC1F00E94CC05209162
:104B8000F2013091F301821B930B2091900430913C
:104B900091048217930720F08091F40182FFE2C113
:104BA0000E94D80A81110E949E0A4C855D856A8503
:104BB00089850E941106811111C061E0CE0109961C
:104BC0000E94D50D6C018B8527EFC2162CE5D2060D
:104BD00081F4882321F181E08093190129853A85A8
:104BE0004B855C856D857E858F8598890E942524FF
:104BF000C6C038EFC3163CE5D30629F4882379F004
:104C00000E94E124EBCF49EFC4164CE5D40639F4F9
:104C1000882329F0809119018111F2CFDCCF0AEDB0
:104C200013E0512CB12CA12C22242394312C2EEFF3
:104C3000422EF8014081518188248A94982C20E0EA
:104C4000822F90E0FC01EE0FFF1FE40FF51F608143
:104C500071816115710531F0C616D70609F44C0152
:104C60002F5FEECFF12CFFEF8F169F0609F449C09E
:104C7000F8014481F09019018F2D411180E0F82F47
:104C8000F170FF2EF801E58086819B85992309F458
:104C9000F8C0FF2009F4F5C06090A4047090A5044A
:104CA000E11013C0A101082C01C0440F0A94EAF7D7
:104CB000842B8683809176039091770386159705E0
:104CC00020F47092770360927603C10102C0880FCE
:104CD000991F2A95E2F70197F801268128171906EE
:104CE00081F480918C0490918D04009709F44BC05D
:104CF0000E94BD056816790608F045C021E0F8015C
:104D000024835F28FFEFAF1ABF0A095F1F4F28E116
:104D1000A216B10409F08DCF8B85882309F40DC14B
:104D2000552009F40AC10E94CC0590938D0480930C
:104D30008C0480917903883010F591E0980F90935E
:104D4000790398E0FE013996DE01119601900D92EB
:104D50009A95E1F73CE0839FC001112486589C4F4F
:104D600028E0FE013196DC0101900D922A95E1F7D1
:104D70002FEF3FEFFC0131872087D386C2866996EB
:104D8000E2E10C94DC3180918A0450918B04982FDD
:104D9000F0E0E0E0851314C090938A04E017F10777
:104DA00009F4AFCF90E0FC01EE0FFF1FEE57FB4F71
:104DB000B182A08201968370992780938B04A1CF42
:104DC000682E712CF301EE0FFF1FEE57FB4F208171
:104DD000318147E0429FD001439FB00D1124A6527C
:104DE000BC4F6D917C911197798F688F40E020E0E6
:104DF00030E0E32FF0E0EE0FFF1F688D798DE60FB6
:104E0000F71F8080918081149104E1F0F8010190F6
:104E1000F081E02DFF8BEE8B20E005C08616970613
:104E200009F44F2D2F5FE22FF0E0EE0FFF1F6E8988
:104E30007F89E60FF71F608171816115710571F738
:104E40003F5FD7CF4423D1F0F801231708F0FD01CD
:104E500021E024830E171F0721F490938A04F42E77
:104E600050CF981305C0AE17BF0711F49F5F937022
:104E700093012F5F3F4F822F83708CCFF0E0E0E0F3
:104E8000F7CF90E0E11020C0B10102C0660F771F9C
:104E90002A95E2F79B01215031098217930731F4DB
:104EA000442309F448C0C5010E941C06C101082C16
:104EB00001C0880F0A94EAF7982F9095F80186812F
:104EC00089238683FE2C1DCF9C01082C02C03595BA
:104ED00027950A94E2F7A90141705527BC0161505A
:104EE000710986239723892B11F5452B01F1F801D0
:104EF00082819381892BC1F01B821C821D821E82BC
:104F000049824A820E94CC058160582F9D838C8300
:104F1000F801828193818F83988729813A814B811F
:104F20006D817E810E942524F8011582BFCFF22F6A
:104F3000F170EF2EBBCFEF2CB9CF90918A04809106
:104F40008B04981731F00E94F024552009F446CEC6
:104F500016CF0E94932410928D0410928C040E940C
:104F60004A06F3CF82E00E941D111ACEA5E0B0E000
:104F7000ECEBF7E20C94D03190934E0380934D0309
:104F8000811520E2920730F40E942C162596E2E06B
:104F90000C94EC3180EF89838A831B820E94CC05BC
:104FA0008160782F9D838C8349815A816B818D81AB
:104FB0000E948425EBCF0F931F93CF93DF938C0137
:104FC000EB0161E572E08C2F0E94B50E892BA1F4F4
:104FD0008091AC049091AD040E94EB0CDD27C75B7F
:104FE000DD4F8881F801108218828330F1F048F497
:104FF000813059F0823081F0DF91CF911F910F9174
:1050000008958430B9F08530B9F7809151029091BC
:105010005202009789F306C0809153029091540286
:10502000009799F30E94B627E7CF8091550290919F
:105030005602F6CF8091570290915802009791F74F
:10504000209151023091520280915302909154026A
:1050500021153105F1F2009729F7C901E3CFA5E049
:10506000B0E0E5E3F8E20C94D03190934E038093E6
:105070004D03811520E2920730F40E9417182596FF
:10508000E2E00C94EC3180EF89838A8381E08B83AA
:105090000E94CC058160782F9D838C8349815A8141
:1050A0006B818D810E948425EACFCF93DF93EC0141
:1050B0000E942F288091AC049091AD040E94EB0CCB
:1050C000CE010E94B627DF91CF9108950F931F93D1
:1050D000CF93DF938C01862F61E572E00E94B50EBD
:1050E000892BB1F4C0915102D0915202209781F0E6
:1050F000F8018081833051F4CE010E945528CE0101
:105100000E945528CE010E94552802C08430D0F755
:10511000DF91CF911F910F9108950F931F93CF931C
:10512000DF938C01EB0161E572E08C2F0E94B50EDC
:10513000892B09F061C0FE01FF27D8018C91E75B44
:10514000FD4F8130D9F419969C911997992311F04C
:1051500080830CC01A969C919923D1F382E08083BE
:1051600080915302909154020097D9F4809151029A
:1051700090915202009709F43FC013C08230D1F5DC
:1051800019968C91199781112AC01A968C918111C8
:105190000BC083E080838091550290915602009766
:1051A00001F10E942F2828C084E08083809157025B
:1051B000909158020097A9F7809151029091520264
:1051C0000097F9F00E945528809153029091540263
:1051D000009739F78091510290915202E2CF85E019
:1051E00080838091510290915202009729F00E9491
:1051F0005528F0CF86E08083DF91CF911F910F91EA
:1052000008958091530290915402B4CF1F920F924F
:105210000FB60F9211242F933F934F935F936F9389
:105220007F938F939F93AF93BF93CF93DF93EF932E
:10523000FF93D091E900DF708091EC00C82FC1701E
:1052400080FDC0E81092E9008091F000877F809394
:10525000F00078940E948C111092E9008091F00087
:1052600088608093F000CD2BCF70C093E900FF9150
:10527000EF91DF91CF91BF91AF919F918F917F91EE
:105280006F915F914F913F912F910F900FBE0F90B3
:105290001F9018951F920F920FB60F9211242F9303
:1052A0003F934F935F936F937F938F939F93AF93AE
:1052B000BF93EF93FF938091E10082FF09C080913B
:1052C000E20082FF05C08091E1008B7F8093E100C6
:1052D0008091DA0080FF24C08091D80080FF20C038
:1052E0008091DA008E7F8093DA008091D90080FF70
:1052F0009DC080E189BD82E189BD09B400FEFDCF7A
:1053000081E08093A50580917705811109C00E94F5
:105310000D040E9400058091E20084608093E20009
:105320008091E10080FF17C08091E20080FF13C0F0
:105330008091E2008E7F8093E2008091E2008061A4
:105340008093E2008091D80080628093D80019BCDD
:1053500085E08093A5058091E10084FF2BC08091BA
:10536000E20084FF27C080E189BD82E189BD89B563
:10537000982F917080FFFBCF8091D8008F7D809314
:10538000D8008091E1008F7E8093E1008091E2005F
:105390008F7E8093E2008091E20081608093E20042
:1053A00080919C05882309F447C084E08093A5057B
:1053B0008091A5058091E10083FF27C08091E200E4
:1053C00083FF23C08091E100877F8093E10082E02A
:1053D0008093A50510929C058091E1008E7F8093BB
:1053E000E1008091E2008E7F8093E2008091E200F4
:1053F00080618093E20042E060E080E00E94CE04A1
:105400008091F00088608093F000FF91EF91BF9150
:10541000AF919F918F917F916F915F914F913F914C
:105420002F910F900FBE0F901F90189519BC1092DE
:10543000A5051092770574CF8091E30087FD93E076
:105440009093A505B5CF78941F921FB61F92112493
:105450008F939F93AF93BF9380916E0590916F054B
:10546000A0917005B09171050196A11DB11D8093A9
:105470006E0590936F05A0937005B0937105BF9171
:10548000AF919F918F911F901FBE1F9018951F92F3
:105490001FB61F9211248F939F93AF93BF93809158
:1054A0006D05811113C080916E0590916F05A091DB
:1054B0007005B09171054196A11DB11D80936E05D7
:1054C00090936F05A0937005B0937105BF91AF9154
:1054D0009F918F911F901FBE1F901895CDB7DEB77B
:1054E000E5970FB6F894DEBF0FBECDBF85B78068D5
:1054F00085BF85B7806885BF84B7877F84BF0FB6B7
:10550000F894A89580916000886180936000109263
:1055100060000FBE80E890E00FB6F89480936100C1
:10552000909361000FBE8AEB98E090937101809395
:1055300070010E94C90E0E94020F0E94F50C0E9489
:105540000D040E9400058091E20084608093E200D7
:1055500078948091A5058823A1F01091E9001F702F
:105560009091EC00892F817090FD80E8182B1092AB
:10557000E9008091E80083FD0E948C111F70109358
:10558000E90082E084BD93E095BD9AEF97BD8093DA
:105590006E000E94E30D811102C00E94151504E502
:1055A00011E08AE5E82E81E0F82ED8018D918D0179
:1055B0008F3F11F00E94BC08E016F106B1F70AE532
:1055C00011E0F80181918F018F3F11F00E94BC081A
:1055D000F1E001361F07A9F786E0E6E3F2E0DF011C
:1055E000282F1D922A95E9F7ECE1F2E0DF011D92E8
:1055F0008A95E9F790E080E00E943532883E9E4F20
:1056000021F40E94E30D811102C00E94FC1882E087
:1056100090E00E942D32809322020E94FC0D909314
:105620007305809372050E94460FEFE3FCE9319702
:10563000F1F700C000000E94460F8091360280FF03
:1056400008C06FEF7FEF90E080E00E9459320E9427
:10565000C70C83E090E00E942D320E94711180E01F
:1056600091E090936A058093690586E392E0F6E005
:10567000F80FFDAB8E010F5F1F4F8091A505F0E481
:10568000DF2EA0E1EA2EB2E1FB2E853009F407C13E
:105690000E94460F882359F08FB7F89440916E0509
:1056A00050916F0560917005709171058FBFA6E3F1
:1056B000B2E0E3E2F2E0F12CE12C3E2D8D919191EC
:1056C000981709F4FBC0292F282790E0DD24D394F4
:1056D000422F4D2109F4EDC09BA73CA78D2191E0FD
:1056E00009F490E09DA70E94CC058160782F9FA7C8
:1056F0008EA74BA55CA56DA58FA50E948425F701FB
:10570000ED5DFD4F8081D826D08280910C01909173
:105710000D01F12CE6E1EE2E019609F017C1809102
:10572000190181111DC18091A90480FF1EC08091C3
:10573000180182FF1AC00E94CC052091720330919B
:105740007303AC01421B530B2091160130911701DA
:105750004217530750F029E232E041E0BC0180914A
:105760007403909175030E94441886E0E3E4F2E02C
:10577000D80101900D928A95E1F71092450210929E
:10578000460210924702109248028B819C81892B1D
:1057900009F41BC180914102909142020E94BD0513
:1057A000AC0190913D02992309F405C18091140147
:1057B0008417150608F009C19F3F19F09F5F909369
:1057C0003D02FB80FF2059F00E94F3079FEF1F145A
:1057D0000CF491E0899F802D112480934502FC8078
:1057E000FF2059F00E94F3079FEF1F140CF491E083
:1057F000899F802D112480934602309145023323E6
:1058000009F4E3C020914602222309F4DEC045EBEF
:105810003403C0011124992309F42AC1909345024D
:1058200045EB240390011124332309F425C130935F
:105830004602CBC08091A505843019F110926D0508
:1058400028E130E00FB6F894A895209360000FBED1
:10585000D092600083B7817F846083BF83B781600B
:1058600083BF7894889583B78E7F83BF0FB6F894F3
:10587000A89580916000886180936000109260001C
:105880000FBE80919B05882351F00E94460FE6E3EE
:10589000F2E081918111F3C43DA93E13FACF8091CA
:1058A000A505853009F4C6CF0E9476110E94040632
:1058B000EFCE9F5FDD0C973009F00ACF4FEFE41A6F
:1058C000F40A86E0E816F10409F0F7CE8FEF88AB12
:1058D00089AB1AAA0E94CC058160782F9CAB8BAB58
:1058E00048A959A96AA98CA90E9484250ECFE89ECF
:1058F000F001E99EF00D1124E954FB4FC288D388D2
:10590000C114D10421F4C090A604D090A704E89E4D
:10591000F001E99EF00D1124E954FB4F86818823A4
:10592000A1F0858596850E94BD05C816D90668F444
:10593000FE9C60011124C60189549B4F0E94A51052
:10594000C60183549B4F0E946210F3948F2D90E008
:1059500020910C0130910D012817390744F6DFCE54
:1059600080918C0490918D04009709F4DCCE0E9404
:10597000BD0520917603309177032817390708F089
:10598000D2CE90918A0480918B04981759F00E948E
:10599000F024109277031092760310928D041092E7
:1059A0008C04C1CE0E94932410928D0410928C041A
:1059B0000E944A06B8CE20911501BAE02B9F9001B3
:1059C00011242417350708F4F9CE8D819E81892B87
:1059D00009F460C080913F02909140020E94BD0591
:1059E000AC0190913C02992309F44AC080911001C6
:1059F0008417150608F04EC09F3F19F09F5F9093E3
:105A00003C02FD80FF2059F00E94BA079FEF1F144F
:105A10000CF491E0899F802D112480934702FE8031
:105A2000FF2059F00E94BA079FEF1F140CF491E079
:105A3000899F802D1124809348023091470233239F
:105A400049F120914802222329F145EB3403C0019A
:105A50001124992309F481C09093470245EB240354
:105A600090011124332309F47CC03093480212C002
:105A700081E080934502D4CE81E080934602A5CF99
:105A8000209111018AE0289F9001112424173507E5
:105A900008F4B4CF46E050E0B80183E492E00E94FD
:105AA0000032892B61F48091450290914602892B46
:105AB00090914702892B90914802892B11F00E9406
:105AC000100786E0F801A3E4B2E001900D928A95F8
:105AD000E1F70E940406909131028913809331020C
